:020000000329D2
:10000600293083120313FD00FD0B072800000800AA
:10001600123083120313FC00DA30FD00FD0B1128A9
:08002600FC0B1128000008008A
:06002E00000000000800C4
:1000340083120313C51B2028861221288616451B0C
:100044002528061226280616C51A2A2886112B28C2
:100054008615451A2F280611302806153C18342811
:10006400061435280610861417208610C5193C2856
:1000740086123D288616451941280612422806167E
:10008400C518462886114728861545184B28061199
:100094004C2806153C1850280614512806108614BE
:1000A400172086103C1C58280B20592803200800D0
:0E00B400831203133F088A003E0882000800F2
:1000C200831203133C104408C5001A203C14080094
:1000D2008316031386100610061186110612861265
:1000E20083128610061086120612861106110B2044
:1000F2000B200B20861506158614172086100B2060
:100102008614172086100B208614172086100B20C9
:1001120006118614172086100B20861417208610CD
:10012200861186168614172086100B208612061555
:1001320086141720861006118614172086100B20AD
:1001420086141720861006158614172086100B2099
:1001520006118614172086108616061686150615B1
:0C0162008614172086100B203C140800A7
:10016E00C928803083120313C000DC28C030C000C1
:10017E00DC289430C000DC28D430C000DC2880306D
:10018E00C000DC28831203134008013A0319B82873
:10019E004008023A0319BD284008033A0319C02843
:1001AE004008043A0319C328C6284103F00040084A
:1001BE00F0077008C0007008C5001A203C10C3017B
:1001CE0043084207840000080319F5284308420734
:1001DE0084000008C4006120C30AE7283C1408000C
:1001EE005A208A110A128000840ABE0A0319BF0A15
:0801FE00F003031DF7280800BF
:10020600413083120313A0004E30A1004F30A200EC
:100216004B30A3004830A4002D30A5004130A60085
:100226005530A7005430A8004F30A9004D30AA0021
:100236004130AB005430AC004930AD004F30AE0019
:100246004E30AF00B0015730B1004530B2004C30EF
:10025600B3004330B4004F30B5004D30B6004530E2
:10026600B7002030B8005430B9004F30BA00BB0197
:1002760069200130C5001A200C30C5001A20013053
:10028600C0000330C1003130C200B7200230C000C8
:100296000130C1002030C200B7201A30FB005E30AA
:1002A600FC006E30FD00FD0B5629FC0B5629FB0B9E
:1002B60056290000BD0104303D02031875291C3083
:1002C600C5001A200730FB005830FC005930FD00ED
:1002D600FD0B6B29FC0B6B29FB0B6B290000000047
:1002E600BD0A5E29BD0108303D0203188D2918306C
:1002F600C5001A200730FB005830FC005930FD00BD
:10030600FD0B8329FC0B8329FB0B832900000000CE
:10031600BD0A7629BD0108303D020318A5291C3007
:10032600C5001A200730FB005830FC005930FD008C
:10033600FD0B9B29FC0B9B29FB0B9B290000000056
:08034600BD0A8E297529A629C4
:02400E004A2F37
:00000001FF
